{
  "contractName": "Ballot",
  "abi": [
    {
      "inputs": [
        {
          "internalType": "string",
          "name": "_ballotOfficialName",
          "type": "string"
        },
        {
          "internalType": "string",
          "name": "_proposal",
          "type": "string"
        }
      ],
      "stateMutability": "nonpayable",
      "type": "constructor"
    },
    {
      "inputs": [],
      "name": "ballotOfficialAddress",
      "outputs": [
        {
          "internalType": "address",
          "name": "",
          "type": "address"
        }
      ],
      "stateMutability": "view",
      "type": "function",
      "constant": true
    },
    {
      "inputs": [],
      "name": "ballotOfficialName",
      "outputs": [
        {
          "internalType": "string",
          "name": "",
          "type": "string"
        }
      ],
      "stateMutability": "view",
      "type": "function",
      "constant": true
    },
    {
      "inputs": [],
      "name": "finalResult",
      "outputs": [
        {
          "internalType": "uint256",
          "name": "",
          "type": "uint256"
        }
      ],
      "stateMutability": "view",
      "type": "function",
      "constant": true
    },
    {
      "inputs": [],
      "name": "proposal",
      "outputs": [
        {
          "internalType": "string",
          "name": "",
          "type": "string"
        }
      ],
      "stateMutability": "view",
      "type": "function",
      "constant": true
    },
    {
      "inputs": [],
      "name": "state",
      "outputs": [
        {
          "internalType": "enum Ballot.State",
          "name": "",
          "type": "uint8"
        }
      ],
      "stateMutability": "view",
      "type": "function",
      "constant": true
    },
    {
      "inputs": [],
      "name": "totalVote",
      "outputs": [
        {
          "internalType": "uint256",
          "name": "",
          "type": "uint256"
        }
      ],
      "stateMutability": "view",
      "type": "function",
      "constant": true
    },
    {
      "inputs": [],
      "name": "totalVoter",
      "outputs": [
        {
          "internalType": "uint256",
          "name": "",
          "type": "uint256"
        }
      ],
      "stateMutability": "view",
      "type": "function",
      "constant": true
    },
    {
      "inputs": [
        {
          "internalType": "address",
          "name": "",
          "type": "address"
        }
      ],
      "name": "voterRegister",
      "outputs": [
        {
          "internalType": "string",
          "name": "voterName",
          "type": "string"
        },
        {
          "internalType": "bool",
          "name": "voted",
          "type": "bool"
        }
      ],
      "stateMutability": "view",
      "type": "function",
      "constant": true
    },
    {
      "inputs": [
        {
          "internalType": "address",
          "name": "_voterAddress",
          "type": "address"
        },
        {
          "internalType": "string",
          "name": "_voterName",
          "type": "string"
        }
      ],
      "name": "addVoter",
      "outputs": [],
      "stateMutability": "nonpayable",
      "type": "function"
    },
    {
      "inputs": [],
      "name": "startVote",
      "outputs": [],
      "stateMutability": "nonpayable",
      "type": "function"
    },
    {
      "inputs": [
        {
          "internalType": "bool",
          "name": "_choice",
          "type": "bool"
        }
      ],
      "name": "doVote",
      "outputs": [
        {
          "internalType": "bool",
          "name": "voted",
          "type": "bool"
        }
      ],
      "stateMutability": "nonpayable",
      "type": "function"
    },
    {
      "inputs": [],
      "name": "endVote",
      "outputs": [],
      "stateMutability": "nonpayable",
      "type": "function"
    }
  ],
  "bytecode": "0x6080604052600080556000600155600060025560006003553480156200002457600080fd5b50604051620014ae380380620014ae83398181016040528101906200004a919062000340565b33600460006101000a81548173ffffffffffffffffffffffffffffffffffffffff021916908373ffffffffffffffffffffffffffffffffffffffff1602179055508160059080519060200190620000a3929190620000f3565b508060069080519060200190620000bc929190620000f3565b506000600960006101000a81548160ff02191690836002811115620000e657620000e5620003c5565b5b0217905550505062000459565b828054620001019062000423565b90600052602060002090601f01602090048101928262000125576000855562000171565b82601f106200014057805160ff191683800117855562000171565b8280016001018555821562000171579182015b828111156200017057825182559160200191906001019062000153565b5b50905062000180919062000184565b5090565b5b808211156200019f57600081600090555060010162000185565b5090565b6000604051905090565b600080fd5b600080fd5b600080fd5b600080fd5b6000601f19601f8301169050919050565b7f4e487b7100000000000000000000000000000000000000000000000000000000600052604160045260246000fd5b6200020c82620001c1565b810181811067ffffffffffffffff821117156200022e576200022d620001d2565b5b80604052505050565b600062000243620001a3565b905062000251828262000201565b919050565b600067ffffffffffffffff821115620002745762000273620001d2565b5b6200027f82620001c1565b9050602081019050919050565b60005b83811015620002ac5780820151818401526020810190506200028f565b83811115620002bc576000848401525b50505050565b6000620002d9620002d38462000256565b62000237565b905082815260208101848484011115620002f857620002f7620001bc565b5b620003058482856200028c565b509392505050565b600082601f830112620003255762000324620001b7565b5b815162000337848260208601620002c2565b91505092915050565b600080604083850312156200035a5762000359620001ad565b5b600083015167ffffffffffffffff8111156200037b576200037a620001b2565b5b62000389858286016200030d565b925050602083015167ffffffffffffffff811115620003ad57620003ac620001b2565b5b620003bb858286016200030d565b9150509250929050565b7f4e487b7100000000000000000000000000000000000000000000000000000000600052602160045260246000fd5b7f4e487b7100000000000000000000000000000000000000000000000000000000600052602260045260246000fd5b600060028204905060018216806200043c57607f821691505b60208210811415620004535762000452620003f4565b5b50919050565b61104580620004696000396000f3fe608060405234801561001057600080fd5b50600436106100b45760003560e01c8063b922394611610071578063b92239461461017e578063c19d93fb14610188578063d9e95a98146101a6578063de975d18146101c2578063f1cea4c7146101e0578063f3a8286f146101fe576100b4565b80634c0a6af0146100b95780636332abc9146100c3578063753ec103146100e157806387caea78146100ff578063909497471461012f578063af1540871461014d575b600080fd5b6100c161021c565b005b6100cb6102e5565b6040516100d89190610ab5565b60405180910390f35b6100e96102eb565b6040516100f69190610b69565b60405180910390f35b61011960048036038101906101149190610bd7565b610379565b6040516101269190610c13565b60405180910390f35b6101376105df565b6040516101449190610c6f565b60405180910390f35b61016760048036038101906101629190610cb6565b610605565b604051610175929190610ce3565b60405180910390f35b6101866106be565b005b610190610790565b60405161019d9190610d8a565b60405180910390f35b6101c060048036038101906101bb9190610eda565b6107a3565b005b6101ca610911565b6040516101d79190610b69565b60405180910390f35b6101e861099f565b6040516101f59190610ab5565b60405180910390f35b6102066109a5565b6040516102139190610ab5565b60405180910390f35b600080600281111561023157610230610d13565b5b600960009054906101000a900460ff16600281111561025357610252610d13565b5b1461025d57600080fd5b600460009054906101000a900473ffffffffffffffffffffffffffffffffffffffff1673ffffffffffffffffffffffffffffffffffffffff163373ffffffffffffffffffffffffffffffffffffffff16146102b757600080fd5b6001600960006101000a81548160ff021916908360028111156102dd576102dc610d13565b5b021790555050565b60025481565b600680546102f890610f65565b80601f016020809104026020016040519081016040528092919081815260200182805461032490610f65565b80156103715780601f1061034657610100808354040283529160200191610371565b820191906000526020600020905b81548152906001019060200180831161035457829003601f168201915b505050505081565b600060018060028111156103905761038f610d13565b5b600960009054906101000a900460ff1660028111156103b2576103b1610d13565b5b146103bc57600080fd5b600080600860003373ffffffffffffffffffffffffffffffffffffffff1673ffffffffffffffffffffffffffffffffffffffff168152602001908152602001600020600001805461040c90610f65565b9050141580156104695750600860003373ffffffffffffffffffffffffffffffffffffffff1673ffffffffffffffffffffffffffffffffffffffff16815260200190815260200160002060010160009054906101000a900460ff16155b156105d5576001600860003373ffffffffffffffffffffffffffffffffffffffff1673ffffffffffffffffffffffffffffffffffffffff16815260200190815260200160002060010160006101000a81548160ff0219169083151502179055506104d16109ab565b33816000019073ffffffffffffffffffffffffffffffffffffffff16908173ffffffffffffffffffffffffffffffffffffffff16815250508481602001901515908115158152505084156105375760008081548092919061053190610fc6565b91905055505b8060076000600354815260200190815260200160002060008201518160000160006101000a81548173ffffffffffffffffffffffffffffffffffffffff021916908373ffffffffffffffffffffffffffffffffffffffff16021790555060208201518160000160146101000a81548160ff021916908315150217905550905050600360008154809291906105ca90610fc6565b919050555060019150505b8092505050919050565b600460009054906101000a900473ffffffffffffffffffffffffffffffffffffffff1681565b600860205280600052604060002060009150905080600001805461062890610f65565b80601f016020809104026020016040519081016040528092919081815260200182805461065490610f65565b80156106a15780601f10610676576101008083540402835291602001916106a1565b820191906000526020600020905b81548152906001019060200180831161068457829003601f168201915b5050505050908060010160009054906101000a900460ff16905082565b60018060028111156106d3576106d2610d13565b5b600960009054906101000a900460ff1660028111156106f5576106f4610d13565b5b146106ff57600080fd5b600460009054906101000a900473ffffffffffffffffffffffffffffffffffffffff1673ffffffffffffffffffffffffffffffffffffffff163373ffffffffffffffffffffffffffffffffffffffff161461075957600080fd5b6002600960006101000a81548160ff0219169083600281111561077f5761077e610d13565b5b021790555060005460018190555050565b600960009054906101000a900460ff1681565b60008060028111156107b8576107b7610d13565b5b600960009054906101000a900460ff1660028111156107da576107d9610d13565b5b146107e457600080fd5b600460009054906101000a900473ffffffffffffffffffffffffffffffffffffffff1673ffffffffffffffffffffffffffffffffffffffff163373ffffffffffffffffffffffffffffffffffffffff161461083e57600080fd5b6108466109dd565b6000816000015151141561085957600080fd5b828160000181905250600081602001901515908115158152505080600860008673ffffffffffffffffffffffffffffffffffffffff1673ffffffffffffffffffffffffffffffffffffffff16815260200190815260200160002060008201518160000190805190602001906108cf9291906109f9565b5060208201518160010160006101000a81548160ff0219169083151502179055509050506002600081548092919061090690610fc6565b919050555050505050565b6005805461091e90610f65565b80601f016020809104026020016040519081016040528092919081815260200182805461094a90610f65565b80156109975780601f1061096c57610100808354040283529160200191610997565b820191906000526020600020905b81548152906001019060200180831161097a57829003601f168201915b505050505081565b60035481565b60015481565b6040518060400160405280600073ffffffffffffffffffffffffffffffffffffffff1681526020016000151581525090565b6040518060400160405280606081526020016000151581525090565b828054610a0590610f65565b90600052602060002090601f016020900481019282610a275760008555610a6e565b82601f10610a4057805160ff1916838001178555610a6e565b82800160010185558215610a6e579182015b82811115610a6d578251825591602001919060010190610a52565b5b509050610a7b9190610a7f565b5090565b5b80821115610a98576000816000905550600101610a80565b5090565b6000819050919050565b610aaf81610a9c565b82525050565b6000602082019050610aca6000830184610aa6565b92915050565b600081519050919050565b600082825260208201905092915050565b60005b83811015610b0a578082015181840152602081019050610aef565b83811115610b19576000848401525b50505050565b6000601f19601f8301169050919050565b6000610b3b82610ad0565b610b458185610adb565b9350610b55818560208601610aec565b610b5e81610b1f565b840191505092915050565b60006020820190508181036000830152610b838184610b30565b905092915050565b6000604051905090565b600080fd5b600080fd5b60008115159050919050565b610bb481610b9f565b8114610bbf57600080fd5b50565b600081359050610bd181610bab565b92915050565b600060208284031215610bed57610bec610b95565b5b6000610bfb84828501610bc2565b91505092915050565b610c0d81610b9f565b82525050565b6000602082019050610c286000830184610c04565b92915050565b600073ffffffffffffffffffffffffffffffffffffffff82169050919050565b6000610c5982610c2e565b9050919050565b610c6981610c4e565b82525050565b6000602082019050610c846000830184610c60565b92915050565b610c9381610c4e565b8114610c9e57600080fd5b50565b600081359050610cb081610c8a565b92915050565b600060208284031215610ccc57610ccb610b95565b5b6000610cda84828501610ca1565b91505092915050565b60006040820190508181036000830152610cfd8185610b30565b9050610d0c6020830184610c04565b9392505050565b7f4e487b7100000000000000000000000000000000000000000000000000000000600052602160045260246000fd5b60038110610d5357610d52610d13565b5b50565b6000819050610d6482610d42565b919050565b6000610d7482610d56565b9050919050565b610d8481610d69565b82525050565b6000602082019050610d9f6000830184610d7b565b92915050565b600080fd5b600080fd5b7f4e487b7100000000000000000000000000000000000000000000000000000000600052604160045260246000fd5b610de782610b1f565b810181811067ffffffffffffffff82111715610e0657610e05610daf565b5b80604052505050565b6000610e19610b8b565b9050610e258282610dde565b919050565b600067ffffffffffffffff821115610e4557610e44610daf565b5b610e4e82610b1f565b9050602081019050919050565b82818337600083830152505050565b6000610e7d610e7884610e2a565b610e0f565b905082815260208101848484011115610e9957610e98610daa565b5b610ea4848285610e5b565b509392505050565b600082601f830112610ec157610ec0610da5565b5b8135610ed1848260208601610e6a565b91505092915050565b60008060408385031215610ef157610ef0610b95565b5b6000610eff85828601610ca1565b925050602083013567ffffffffffffffff811115610f2057610f1f610b9a565b5b610f2c85828601610eac565b9150509250929050565b7f4e487b7100000000000000000000000000000000000000000000000000000000600052602260045260246000fd5b60006002820490506001821680610f7d57607f821691505b60208210811415610f9157610f90610f36565b5b50919050565b7f4e487b7100000000000000000000000000000000000000000000000000000000600052601160045260246000fd5b6000610fd182610a9c565b91507fffffffffffffffffffffffffffffffffffffffffffffffffffffffffffffffff82141561100457611003610f97565b5b60018201905091905056fea2646970667358221220598c933e998a708cfa1b49b1abbf722f85ecbb2ca1ae22a019c291058d893aaf64736f6c634300080b0033",
  "immutableReferences": {},
  "source": "// SPDX-License-Identifier: MIT\r\npragma solidity >=0.7.0 <0.9.0;\r\n\r\ncontract Ballot{\r\n\r\n    // VARIABLES\r\n    struct vote {\r\n        address voterAddress;\r\n        bool choice;\r\n    }\r\n\r\n    struct voter {\r\n        string voterName;\r\n        bool voted;\r\n    }\r\n\r\n    uint private countResult = 0;\r\n    uint public finalResult = 0;\r\n    uint public totalVoter = 0;\r\n    uint public totalVote = 0;\r\n\r\n    address public ballotOfficialAddress;\r\n    string public ballotOfficialName;\r\n    string public proposal;\r\n\r\n    mapping(uint => vote) private votes;\r\n    mapping(address => voter) public voterRegister;\r\n\r\n    enum State { \r\n        Created,\r\n        Voting,\r\n        Ended\r\n    }\r\n    State public state;\r\n\r\n    // MODIFIERS\r\n    modifier condition(bool _condition){\r\n        require(_condition);\r\n        _;\r\n    }\r\n    modifier onlyOfficial(){\r\n        require(msg.sender == ballotOfficialAddress);\r\n        _;\r\n    }\r\n    modifier inState(State _state){\r\n        require(state == _state);\r\n        _;\r\n    }\r\n    // EVENTS\r\n\r\n    // FUNCTIONS\r\n    constructor(\r\n        string memory _ballotOfficialName,\r\n        string memory _proposal\r\n    ){\r\n        ballotOfficialAddress = msg.sender;\r\n        ballotOfficialName = _ballotOfficialName;\r\n        proposal = _proposal;\r\n\r\n        state = State.Created;\r\n    }\r\n    function addVoter(address _voterAddress, string memory _voterName)\r\n        public\r\n        inState(State.Created)\r\n        onlyOfficial\r\n    {\r\n        voter memory v;\r\n        require(bytes(v.voterName).length != 0);\r\n        v.voterName = _voterName;\r\n        v.voted = false;\r\n        voterRegister[_voterAddress] = v;\r\n        totalVoter++;\r\n    }\r\n    function startVote()\r\n        public\r\n        inState(State.Created)\r\n        onlyOfficial\r\n    {\r\n        state = State.Voting;\r\n    }\r\n    function doVote(bool _choice)\r\n        public\r\n        inState(State.Voting)\r\n        returns (bool voted)\r\n    {\r\n        bool found = false;\r\n        if (bytes(voterRegister[msg.sender].voterName).length != 0\r\n        && !voterRegister[msg.sender].voted){\r\n            voterRegister[msg.sender].voted =true;\r\n            vote memory v; \r\n            v.voterAddress = msg.sender;\r\n            v.choice = _choice;\r\n            if(_choice){\r\n                countResult++;\r\n            }\r\n            votes[totalVote] = v;\r\n            totalVote++;\r\n            found = true;\r\n        }\r\n        return found;\r\n    }\r\n    function endVote()\r\n        public\r\n        inState(State.Voting)\r\n        onlyOfficial\r\n    {\r\n        state = State.Ended;\r\n        finalResult = countResult;\r\n    }\r\n}",
  "sourcePath": "C:\\Users\\\\Documents\\GitHub\\Studying\\solidity\\voting\\contracts\\Voting.sol",
  "compiler": {
    "name": "solc",
    "version": "0.8.11+commit.d7f03943.Emscripten.clang"
  },
  "schemaVersion": "3.4.4",
  "updatedAt": "2022-02-19T00:54:43.499Z",
  "networkType": "ethereum",
  "devdoc": {
    "kind": "dev",
    "methods": {},
    "version": 1
  },
  "userdoc": {
    "kind": "user",
    "methods": {},
    "version": 1
  }
}